{
  "_format": "hh-sol-artifact-1",
  "contractName": "PepperPassport",
  "sourceName": "contracts/PepperPassport.sol",
  "abi": [
    {
      "inputs": [],
      "stateMutability": "nonpayable",
      "type": "constructor"
    },
    {
      "inputs": [
        {
          "internalType": "address",
          "name": "sender",
          "type": "address"
        },
        {
          "internalType": "uint256",
          "name": "tokenId",
          "type": "uint256"
        },
        {
          "internalType": "address",
          "name": "owner",
          "type": "address"
        }
      ],
      "name": "ERC721IncorrectOwner",
      "type": "error"
    },
    {
      "inputs": [
        {
          "internalType": "address",
          "name": "operator",
          "type": "address"
        },
        {
          "internalType": "uint256",
          "name": "tokenId",
          "type": "uint256"
        }
      ],
      "name": "ERC721InsufficientApproval",
      "type": "error"
    },
    {
      "inputs": [
        {
          "internalType": "address",
          "name": "approver",
          "type": "address"
        }
      ],
      "name": "ERC721InvalidApprover",
      "type": "error"
    },
    {
      "inputs": [
        {
          "internalType": "address",
          "name": "operator",
          "type": "address"
        }
      ],
      "name": "ERC721InvalidOperator",
      "type": "error"
    },
    {
      "inputs": [
        {
          "internalType": "address",
          "name": "owner",
          "type": "address"
        }
      ],
      "name": "ERC721InvalidOwner",
      "type": "error"
    },
    {
      "inputs": [
        {
          "internalType": "address",
          "name": "receiver",
          "type": "address"
        }
      ],
      "name": "ERC721InvalidReceiver",
      "type": "error"
    },
    {
      "inputs": [
        {
          "internalType": "address",
          "name": "sender",
          "type": "address"
        }
      ],
      "name": "ERC721InvalidSender",
      "type": "error"
    },
    {
      "inputs": [
        {
          "internalType": "uint256",
          "name": "tokenId",
          "type": "uint256"
        }
      ],
      "name": "ERC721NonexistentToken",
      "type": "error"
    },
    {
      "inputs": [
        {
          "internalType": "address",
          "name": "owner",
          "type": "address"
        }
      ],
      "name": "OwnableInvalidOwner",
      "type": "error"
    },
    {
      "inputs": [
        {
          "internalType": "address",
          "name": "account",
          "type": "address"
        }
      ],
      "name": "OwnableUnauthorizedAccount",
      "type": "error"
    },
    {
      "inputs": [],
      "name": "ReentrancyGuardReentrantCall",
      "type": "error"
    },
    {
      "anonymous": false,
      "inputs": [
        {
          "indexed": true,
          "internalType": "address",
          "name": "owner",
          "type": "address"
        },
        {
          "indexed": true,
          "internalType": "address",
          "name": "approved",
          "type": "address"
        },
        {
          "indexed": true,
          "internalType": "uint256",
          "name": "tokenId",
          "type": "uint256"
        }
      ],
      "name": "Approval",
      "type": "event"
    },
    {
      "anonymous": false,
      "inputs": [
        {
          "indexed": true,
          "internalType": "address",
          "name": "owner",
          "type": "address"
        },
        {
          "indexed": true,
          "internalType": "address",
          "name": "operator",
          "type": "address"
        },
        {
          "indexed": false,
          "internalType": "bool",
          "name": "approved",
          "type": "bool"
        }
      ],
      "name": "ApprovalForAll",
      "type": "event"
    },
    {
      "anonymous": false,
      "inputs": [
        {
          "indexed": false,
          "internalType": "uint256",
          "name": "_fromTokenId",
          "type": "uint256"
        },
        {
          "indexed": false,
          "internalType": "uint256",
          "name": "_toTokenId",
          "type": "uint256"
        }
      ],
      "name": "BatchMetadataUpdate",
      "type": "event"
    },
    {
      "anonymous": false,
      "inputs": [
        {
          "indexed": true,
          "internalType": "uint256",
          "name": "tokenId",
          "type": "uint256"
        },
        {
          "indexed": false,
          "internalType": "string",
          "name": "certType",
          "type": "string"
        },
        {
          "indexed": false,
          "internalType": "string",
          "name": "certId",
          "type": "string"
        },
        {
          "indexed": false,
          "internalType": "uint256",
          "name": "expiryDate",
          "type": "uint256"
        }
      ],
      "name": "CertificationAdded",
      "type": "event"
    },
    {
      "anonymous": false,
      "inputs": [
        {
          "indexed": true,
          "internalType": "uint256",
          "name": "tokenId",
          "type": "uint256"
        },
        {
          "indexed": false,
          "internalType": "string",
          "name": "certType",
          "type": "string"
        },
        {
          "indexed": false,
          "internalType": "uint256",
          "name": "timestamp",
          "type": "uint256"
        }
      ],
      "name": "CertificationRevoked",
      "type": "event"
    },
    {
      "anonymous": false,
      "inputs": [
        {
          "indexed": false,
          "internalType": "uint256",
          "name": "_tokenId",
          "type": "uint256"
        }
      ],
      "name": "MetadataUpdate",
      "type": "event"
    },
    {
      "anonymous": false,
      "inputs": [
        {
          "indexed": true,
          "internalType": "address",
          "name": "previousOwner",
          "type": "address"
        },
        {
          "indexed": true,
          "internalType": "address",
          "name": "newOwner",
          "type": "address"
        }
      ],
      "name": "OwnershipTransferred",
      "type": "event"
    },
    {
      "anonymous": false,
      "inputs": [
        {
          "indexed": true,
          "internalType": "uint256",
          "name": "tokenId",
          "type": "uint256"
        },
        {
          "indexed": true,
          "internalType": "string",
          "name": "lotId",
          "type": "string"
        },
        {
          "indexed": true,
          "internalType": "address",
          "name": "farmer",
          "type": "address"
        },
        {
          "indexed": false,
          "internalType": "string",
          "name": "metadataURI",
          "type": "string"
        }
      ],
      "name": "PassportMinted",
      "type": "event"
    },
    {
      "anonymous": false,
      "inputs": [
        {
          "indexed": true,
          "internalType": "uint256",
          "name": "tokenId",
          "type": "uint256"
        },
        {
          "indexed": true,
          "internalType": "address",
          "name": "from",
          "type": "address"
        },
        {
          "indexed": true,
          "internalType": "address",
          "name": "to",
          "type": "address"
        },
        {
          "indexed": false,
          "internalType": "uint256",
          "name": "timestamp",
          "type": "uint256"
        }
      ],
      "name": "PassportTransferred",
      "type": "event"
    },
    {
      "anonymous": false,
      "inputs": [
        {
          "indexed": true,
          "internalType": "uint256",
          "name": "tokenId",
          "type": "uint256"
        },
        {
          "indexed": false,
          "internalType": "string",
          "name": "stage",
          "type": "string"
        },
        {
          "indexed": false,
          "internalType": "uint256",
          "name": "timestamp",
          "type": "uint256"
        }
      ],
      "name": "ProcessingLogAdded",
      "type": "event"
    },
    {
      "anonymous": false,
      "inputs": [
        {
          "indexed": true,
          "internalType": "address",
          "name": "from",
          "type": "address"
        },
        {
          "indexed": true,
          "internalType": "address",
          "name": "to",
          "type": "address"
        },
        {
          "indexed": true,
          "internalType": "uint256",
          "name": "tokenId",
          "type": "uint256"
        }
      ],
      "name": "Transfer",
      "type": "event"
    },
    {
      "inputs": [
        {
          "internalType": "uint256",
          "name": "tokenId",
          "type": "uint256"
        },
        {
          "internalType": "string",
          "name": "certType",
          "type": "string"
        },
        {
          "internalType": "string",
          "name": "certId",
          "type": "string"
        },
        {
          "internalType": "string",
          "name": "issuedBy",
          "type": "string"
        },
        {
          "internalType": "uint256",
          "name": "issuedDate",
          "type": "uint256"
        },
        {
          "internalType": "uint256",
          "name": "expiryDate",
          "type": "uint256"
        },
        {
          "internalType": "bytes32",
          "name": "documentHash",
          "type": "bytes32"
        }
      ],
      "name": "addCertification",
      "outputs": [],
      "stateMutability": "nonpayable",
      "type": "function"
    },
    {
      "inputs": [
        {
          "internalType": "uint256",
          "name": "tokenId",
          "type": "uint256"
        },
        {
          "internalType": "string",
          "name": "stage",
          "type": "string"
        },
        {
          "internalType": "string",
          "name": "description",
          "type": "string"
        },
        {
          "internalType": "string",
          "name": "location",
          "type": "string"
        }
      ],
      "name": "addProcessingLog",
      "outputs": [],
      "stateMutability": "nonpayable",
      "type": "function"
    },
    {
      "inputs": [
        {
          "internalType": "address",
          "name": "to",
          "type": "address"
        },
        {
          "internalType": "uint256",
          "name": "tokenId",
          "type": "uint256"
        }
      ],
      "name": "approve",
      "outputs": [],
      "stateMutability": "nonpayable",
      "type": "function"
    },
    {
      "inputs": [
        {
          "internalType": "address",
          "name": "owner",
          "type": "address"
        }
      ],
      "name": "balanceOf",
      "outputs": [
        {
          "internalType": "uint256",
          "name": "",
          "type": "uint256"
        }
      ],
      "stateMutability": "view",
      "type": "function"
    },
    {
      "inputs": [
        {
          "internalType": "uint256",
          "name": "",
          "type": "uint256"
        },
        {
          "internalType": "uint256",
          "name": "",
          "type": "uint256"
        }
      ],
      "name": "certifications",
      "outputs": [
        {
          "internalType": "string",
          "name": "certType",
          "type": "string"
        },
        {
          "internalType": "string",
          "name": "certId",
          "type": "string"
        },
        {
          "internalType": "string",
          "name": "issuedBy",
          "type": "string"
        },
        {
          "internalType": "uint256",
          "name": "issuedDate",
          "type": "uint256"
        },
        {
          "internalType": "uint256",
          "name": "expiryDate",
          "type": "uint256"
        },
        {
          "internalType": "bytes32",
          "name": "documentHash",
          "type": "bytes32"
        },
        {
          "internalType": "bool",
          "name": "isValid",
          "type": "bool"
        }
      ],
      "stateMutability": "view",
      "type": "function"
    },
    {
      "inputs": [
        {
          "internalType": "uint256",
          "name": "tokenId",
          "type": "uint256"
        }
      ],
      "name": "getApproved",
      "outputs": [
        {
          "internalType": "address",
          "name": "",
          "type": "address"
        }
      ],
      "stateMutability": "view",
      "type": "function"
    },
    {
      "inputs": [
        {
          "internalType": "uint256",
          "name": "tokenId",
          "type": "uint256"
        }
      ],
      "name": "getCertifications",
      "outputs": [
        {
          "components": [
            {
              "internalType": "string",
              "name": "certType",
              "type": "string"
            },
            {
              "internalType": "string",
              "name": "certId",
              "type": "string"
            },
            {
              "internalType": "string",
              "name": "issuedBy",
              "type": "string"
            },
            {
              "internalType": "uint256",
              "name": "issuedDate",
              "type": "uint256"
            },
            {
              "internalType": "uint256",
              "name": "expiryDate",
              "type": "uint256"
            },
            {
              "internalType": "bytes32",
              "name": "documentHash",
              "type": "bytes32"
            },
            {
              "internalType": "bool",
              "name": "isValid",
              "type": "bool"
            }
          ],
          "internalType": "struct PepperPassport.Certification[]",
          "name": "",
          "type": "tuple[]"
        }
      ],
      "stateMutability": "view",
      "type": "function"
    },
    {
      "inputs": [
        {
          "internalType": "string",
          "name": "lotId",
          "type": "string"
        }
      ],
      "name": "getPassportByLotId",
      "outputs": [
        {
          "internalType": "uint256",
          "name": "tokenId",
          "type": "uint256"
        },
        {
          "components": [
            {
              "internalType": "string",
              "name": "lotId",
              "type": "string"
            },
            {
              "internalType": "address",
              "name": "farmer",
              "type": "address"
            },
            {
              "internalType": "uint256",
              "name": "createdAt",
              "type": "uint256"
            },
            {
              "internalType": "string",
              "name": "origin",
              "type": "string"
            },
            {
              "internalType": "string",
              "name": "variety",
              "type": "string"
            },
            {
              "internalType": "uint256",
              "name": "quantity",
              "type": "uint256"
            },
            {
              "internalType": "string",
              "name": "harvestDate",
              "type": "string"
            },
            {
              "internalType": "bytes32",
              "name": "certificateHash",
              "type": "bytes32"
            },
            {
              "internalType": "bool",
              "name": "isActive",
              "type": "bool"
            }
          ],
          "internalType": "struct PepperPassport.PassportData",
          "name": "passport",
          "type": "tuple"
        },
        {
          "components": [
            {
              "internalType": "string",
              "name": "stage",
              "type": "string"
            },
            {
              "internalType": "string",
              "name": "description",
              "type": "string"
            },
            {
              "internalType": "uint256",
              "name": "timestamp",
              "type": "uint256"
            },
            {
              "internalType": "address",
              "name": "recordedBy",
              "type": "address"
            },
            {
              "internalType": "string",
              "name": "location",
              "type": "string"
            }
          ],
          "internalType": "struct PepperPassport.ProcessingLog[]",
          "name": "logs",
          "type": "tuple[]"
        },
        {
          "components": [
            {
              "internalType": "string",
              "name": "certType",
              "type": "string"
            },
            {
              "internalType": "string",
              "name": "certId",
              "type": "string"
            },
            {
              "internalType": "string",
              "name": "issuedBy",
              "type": "string"
            },
            {
              "internalType": "uint256",
              "name": "issuedDate",
              "type": "uint256"
            },
            {
              "internalType": "uint256",
              "name": "expiryDate",
              "type": "uint256"
            },
            {
              "internalType": "bytes32",
              "name": "documentHash",
              "type": "bytes32"
            },
            {
              "internalType": "bool",
              "name": "isValid",
              "type": "bool"
            }
          ],
          "internalType": "struct PepperPassport.Certification[]",
          "name": "certs",
          "type": "tuple[]"
        }
      ],
      "stateMutability": "view",
      "type": "function"
    },
    {
      "inputs": [
        {
          "internalType": "uint256",
          "name": "tokenId",
          "type": "uint256"
        }
      ],
      "name": "getPassportInfo",
      "outputs": [
        {
          "components": [
            {
              "internalType": "string",
              "name": "lotId",
              "type": "string"
            },
            {
              "internalType": "address",
              "name": "farmer",
              "type": "address"
            },
            {
              "internalType": "uint256",
              "name": "createdAt",
              "type": "uint256"
            },
            {
              "internalType": "string",
              "name": "origin",
              "type": "string"
            },
            {
              "internalType": "string",
              "name": "variety",
              "type": "string"
            },
            {
              "internalType": "uint256",
              "name": "quantity",
              "type": "uint256"
            },
            {
              "internalType": "string",
              "name": "harvestDate",
              "type": "string"
            },
            {
              "internalType": "bytes32",
              "name": "certificateHash",
              "type": "bytes32"
            },
            {
              "internalType": "bool",
              "name": "isActive",
              "type": "bool"
            }
          ],
          "internalType": "struct PepperPassport.PassportData",
          "name": "passport",
          "type": "tuple"
        },
        {
          "components": [
            {
              "internalType": "string",
              "name": "stage",
              "type": "string"
            },
            {
              "internalType": "string",
              "name": "description",
              "type": "string"
            },
            {
              "internalType": "uint256",
              "name": "timestamp",
              "type": "uint256"
            },
            {
              "internalType": "address",
              "name": "recordedBy",
              "type": "address"
            },
            {
              "internalType": "string",
              "name": "location",
              "type": "string"
            }
          ],
          "internalType": "struct PepperPassport.ProcessingLog[]",
          "name": "logs",
          "type": "tuple[]"
        },
        {
          "components": [
            {
              "internalType": "string",
              "name": "certType",
              "type": "string"
            },
            {
              "internalType": "string",
              "name": "certId",
              "type": "string"
            },
            {
              "internalType": "string",
              "name": "issuedBy",
              "type": "string"
            },
            {
              "internalType": "uint256",
              "name": "issuedDate",
              "type": "uint256"
            },
            {
              "internalType": "uint256",
              "name": "expiryDate",
              "type": "uint256"
            },
            {
              "internalType": "bytes32",
              "name": "documentHash",
              "type": "bytes32"
            },
            {
              "internalType": "bool",
              "name": "isValid",
              "type": "bool"
            }
          ],
          "internalType": "struct PepperPassport.Certification[]",
          "name": "certs",
          "type": "tuple[]"
        },
        {
          "internalType": "string",
          "name": "metadataURI",
          "type": "string"
        }
      ],
      "stateMutability": "view",
      "type": "function"
    },
    {
      "inputs": [
        {
          "internalType": "uint256",
          "name": "tokenId",
          "type": "uint256"
        }
      ],
      "name": "getProcessingLogs",
      "outputs": [
        {
          "components": [
            {
              "internalType": "string",
              "name": "stage",
              "type": "string"
            },
            {
              "internalType": "string",
              "name": "description",
              "type": "string"
            },
            {
              "internalType": "uint256",
              "name": "timestamp",
              "type": "uint256"
            },
            {
              "internalType": "address",
              "name": "recordedBy",
              "type": "address"
            },
            {
              "internalType": "string",
              "name": "location",
              "type": "string"
            }
          ],
          "internalType": "struct PepperPassport.ProcessingLog[]",
          "name": "",
          "type": "tuple[]"
        }
      ],
      "stateMutability": "view",
      "type": "function"
    },
    {
      "inputs": [
        {
          "internalType": "address",
          "name": "owner",
          "type": "address"
        },
        {
          "internalType": "address",
          "name": "operator",
          "type": "address"
        }
      ],
      "name": "isApprovedForAll",
      "outputs": [
        {
          "internalType": "bool",
          "name": "",
          "type": "bool"
        }
      ],
      "stateMutability": "view",
      "type": "function"
    },
    {
      "inputs": [
        {
          "internalType": "uint256",
          "name": "tokenId",
          "type": "uint256"
        },
        {
          "internalType": "uint256",
          "name": "certIndex",
          "type": "uint256"
        }
      ],
      "name": "isCertificationValid",
      "outputs": [
        {
          "internalType": "bool",
          "name": "",
          "type": "bool"
        }
      ],
      "stateMutability": "view",
      "type": "function"
    },
    {
      "inputs": [
        {
          "internalType": "string",
          "name": "",
          "type": "string"
        }
      ],
      "name": "lotIdToTokenId",
      "outputs": [
        {
          "internalType": "uint256",
          "name": "",
          "type": "uint256"
        }
      ],
      "stateMutability": "view",
      "type": "function"
    },
    {
      "inputs": [
        {
          "internalType": "address",
          "name": "farmer",
          "type": "address"
        },
        {
          "internalType": "string",
          "name": "lotId",
          "type": "string"
        },
        {
          "internalType": "string",
          "name": "variety",
          "type": "string"
        },
        {
          "internalType": "uint256",
          "name": "quantity",
          "type": "uint256"
        },
        {
          "internalType": "string",
          "name": "harvestDate",
          "type": "string"
        },
        {
          "internalType": "string",
          "name": "origin",
          "type": "string"
        },
        {
          "internalType": "bytes32",
          "name": "certificateHash",
          "type": "bytes32"
        },
        {
          "internalType": "string",
          "name": "metadataURI",
          "type": "string"
        }
      ],
      "name": "mintPassport",
      "outputs": [
        {
          "internalType": "uint256",
          "name": "",
          "type": "uint256"
        }
      ],
      "stateMutability": "nonpayable",
      "type": "function"
    },
    {
      "inputs": [],
      "name": "name",
      "outputs": [
        {
          "internalType": "string",
          "name": "",
          "type": "string"
        }
      ],
      "stateMutability": "view",
      "type": "function"
    },
    {
      "inputs": [],
      "name": "owner",
      "outputs": [
        {
          "internalType": "address",
          "name": "",
          "type": "address"
        }
      ],
      "stateMutability": "view",
      "type": "function"
    },
    {
      "inputs": [
        {
          "internalType": "uint256",
          "name": "tokenId",
          "type": "uint256"
        }
      ],
      "name": "ownerOf",
      "outputs": [
        {
          "internalType": "address",
          "name": "",
          "type": "address"
        }
      ],
      "stateMutability": "view",
      "type": "function"
    },
    {
      "inputs": [
        {
          "internalType": "uint256",
          "name": "",
          "type": "uint256"
        }
      ],
      "name": "passportExists",
      "outputs": [
        {
          "internalType": "bool",
          "name": "",
          "type": "bool"
        }
      ],
      "stateMutability": "view",
      "type": "function"
    },
    {
      "inputs": [
        {
          "internalType": "uint256",
          "name": "",
          "type": "uint256"
        }
      ],
      "name": "passports",
      "outputs": [
        {
          "internalType": "string",
          "name": "lotId",
          "type": "string"
        },
        {
          "internalType": "address",
          "name": "farmer",
          "type": "address"
        },
        {
          "internalType": "uint256",
          "name": "createdAt",
          "type": "uint256"
        },
        {
          "internalType": "string",
          "name": "origin",
          "type": "string"
        },
        {
          "internalType": "string",
          "name": "variety",
          "type": "string"
        },
        {
          "internalType": "uint256",
          "name": "quantity",
          "type": "uint256"
        },
        {
          "internalType": "string",
          "name": "harvestDate",
          "type": "string"
        },
        {
          "internalType": "bytes32",
          "name": "certificateHash",
          "type": "bytes32"
        },
        {
          "internalType": "bool",
          "name": "isActive",
          "type": "bool"
        }
      ],
      "stateMutability": "view",
      "type": "function"
    },
    {
      "inputs": [
        {
          "internalType": "uint256",
          "name": "",
          "type": "uint256"
        },
        {
          "internalType": "uint256",
          "name": "",
          "type": "uint256"
        }
      ],
      "name": "processingLogs",
      "outputs": [
        {
          "internalType": "string",
          "name": "stage",
          "type": "string"
        },
        {
          "internalType": "string",
          "name": "description",
          "type": "string"
        },
        {
          "internalType": "uint256",
          "name": "timestamp",
          "type": "uint256"
        },
        {
          "internalType": "address",
          "name": "recordedBy",
          "type": "address"
        },
        {
          "internalType": "string",
          "name": "location",
          "type": "string"
        }
      ],
      "stateMutability": "view",
      "type": "function"
    },
    {
      "inputs": [],
      "name": "renounceOwnership",
      "outputs": [],
      "stateMutability": "nonpayable",
      "type": "function"
    },
    {
      "inputs": [
        {
          "internalType": "uint256",
          "name": "tokenId",
          "type": "uint256"
        },
        {
          "internalType": "uint256",
          "name": "certIndex",
          "type": "uint256"
        }
      ],
      "name": "revokeCertification",
      "outputs": [],
      "stateMutability": "nonpayable",
      "type": "function"
    },
    {
      "inputs": [
        {
          "internalType": "address",
          "name": "from",
          "type": "address"
        },
        {
          "internalType": "address",
          "name": "to",
          "type": "address"
        },
        {
          "internalType": "uint256",
          "name": "tokenId",
          "type": "uint256"
        }
      ],
      "name": "safeTransferFrom",
      "outputs": [],
      "stateMutability": "nonpayable",
      "type": "function"
    },
    {
      "inputs": [
        {
          "internalType": "address",
          "name": "from",
          "type": "address"
        },
        {
          "internalType": "address",
          "name": "to",
          "type": "address"
        },
        {
          "internalType": "uint256",
          "name": "tokenId",
          "type": "uint256"
        },
        {
          "internalType": "bytes",
          "name": "data",
          "type": "bytes"
        }
      ],
      "name": "safeTransferFrom",
      "outputs": [],
      "stateMutability": "nonpayable",
      "type": "function"
    },
    {
      "inputs": [
        {
          "internalType": "address",
          "name": "operator",
          "type": "address"
        },
        {
          "internalType": "bool",
          "name": "approved",
          "type": "bool"
        }
      ],
      "name": "setApprovalForAll",
      "outputs": [],
      "stateMutability": "nonpayable",
      "type": "function"
    },
    {
      "inputs": [
        {
          "internalType": "bytes4",
          "name": "interfaceId",
          "type": "bytes4"
        }
      ],
      "name": "supportsInterface",
      "outputs": [
        {
          "internalType": "bool",
          "name": "",
          "type": "bool"
        }
      ],
      "stateMutability": "view",
      "type": "function"
    },
    {
      "inputs": [],
      "name": "symbol",
      "outputs": [
        {
          "internalType": "string",
          "name": "",
          "type": "string"
        }
      ],
      "stateMutability": "view",
      "type": "function"
    },
    {
      "inputs": [
        {
          "internalType": "uint256",
          "name": "tokenId",
          "type": "uint256"
        }
      ],
      "name": "tokenURI",
      "outputs": [
        {
          "internalType": "string",
          "name": "",
          "type": "string"
        }
      ],
      "stateMutability": "view",
      "type": "function"
    },
    {
      "inputs": [],
      "name": "totalSupply",
      "outputs": [
        {
          "internalType": "uint256",
          "name": "",
          "type": "uint256"
        }
      ],
      "stateMutability": "view",
      "type": "function"
    },
    {
      "inputs": [
        {
          "internalType": "address",
          "name": "from",
          "type": "address"
        },
        {
          "internalType": "address",
          "name": "to",
          "type": "address"
        },
        {
          "internalType": "uint256",
          "name": "tokenId",
          "type": "uint256"
        }
      ],
      "name": "transferFrom",
      "outputs": [],
      "stateMutability": "nonpayable",
      "type": "function"
    },
    {
      "inputs": [
        {
          "internalType": "address",
          "name": "newOwner",
          "type": "address"
        }
      ],
      "name": "transferOwnership",
      "outputs": [],
      "stateMutability": "nonpayable",
      "type": "function"
    }
  ],
  "bytecode": "0x60806040523480156200001157600080fd5b50336040518060400160405280600f81526020016e14195c1c195c8814185cdcdc1bdc9d608a1b815250604051806040016040528060068152602001652822a82822a960d11b81525081600090816200006b9190620001bf565b5060016200007a8282620001bf565b5050506001600160a01b038116620000ac57604051631e4fbdf760e01b81526000600482015260240160405180910390fd5b620000b781620000c8565b50600160085560006009556200028b565b600780546001600160a01b038381166001600160a01b0319831681179093556040519116919082907f8be0079c531659141344cd1fd0a4f28419497f9722a3daafe3b4186f6b6457e090600090a35050565b634e487b7160e01b600052604160045260246000fd5b600181811c908216806200014557607f821691505b6020821081036200016657634e487b7160e01b600052602260045260246000fd5b50919050565b601f821115620001ba57600081815260208120601f850160051c81016020861015620001955750805b601f850160051c820191505b81811015620001b657828155600101620001a1565b5050505b505050565b81516001600160401b03811115620001db57620001db6200011a565b620001f381620001ec845462000130565b846200016c565b602080601f8311600181146200022b5760008415620002125750858301515b600019600386901b1c1916600185901b178555620001b6565b600085815260208120601f198616915b828110156200025c578886015182559484019460019091019084016200023b565b50858210156200027b5787850151600019600388901b60f8161c191681555b5050505050600190811b01905550565b6145b1806200029b6000396000f3fe608060405234801561001057600080fd5b50600436106101e55760003560e01c806371e7bcec1161010f578063c87b56dd116100a2578063e188c10f11610071578063e188c10f14610481578063e9098026146104a4578063e985e9c5146104c4578063f2fde38b146104d757600080fd5b8063c87b56dd14610410578063cb22f5fd14610423578063cb60bdc41461044b578063cb7facaa1461045e57600080fd5b806395d89b41116100de57806395d89b41146103cf578063a22cb465146103d7578063b88d4fde146103ea578063c15d3702146103fd57600080fd5b806371e7bcec1461036157806381056114146103855780638da5cb5b146103ab57806391b75038146103bc57600080fd5b80633d8a3c2c116101875780636352211e116101565780636352211e146103135780636e4c4f761461032657806370a0823114610346578063715018a61461035957600080fd5b80633d8a3c2c1461029f5780633f7e2449146102b257806342842e0e146102dd5780634965c465146102f057600080fd5b8063095ea7b3116101c3578063095ea7b31461025257806318160ddd1461026757806323b872dd1461027957806327f7fb871461028c57600080fd5b806301ffc9a7146101ea57806306fdde0314610212578063081812fc14610227575b600080fd5b6101fd6101f836600461389c565b6104ea565b60405190151581526020015b60405180910390f35b61021a610515565b6040516102099190613909565b61023a61023536600461391c565b6105a7565b6040516001600160a01b039091168152602001610209565b610265610260366004613951565b6105d0565b005b6009545b604051908152602001610209565b61026561028736600461397b565b6105df565b6101fd61029a3660046139b7565b61066f565b6102656102ad366004613a85565b61092c565b61026b6102c0366004613b32565b8051602081830181018051600d8252928201919093012091525481565b6102656102eb36600461397b565b610aba565b6101fd6102fe36600461391c565b600e6020526000908152604090205460ff1681565b61023a61032136600461391c565b610ada565b61033961033436600461391c565b610ae5565b6040516102099190613c1b565b61026b610354366004613c2e565b610d53565b610265610d9b565b61037461036f3660046139b7565b610daf565b604051610209959493929190613c49565b6103986103933660046139b7565b610fa8565b6040516102099796959493929190613ca4565b6007546001600160a01b031661023a565b6102656103ca3660046139b7565b6111a3565b61021a6112e5565b6102656103e5366004613d06565b6112f4565b6102656103f8366004613d42565b6112ff565b61026561040b366004613dbe565b611317565b61021a61041e36600461391c565b61149d565b61043661043136600461391c565b6115a6565b60405161020999989796959493929190613e44565b61026b610459366004613ecf565b61181e565b61047161046c366004613b32565b611be5565b6040516102099493929190614136565b61049461048f36600461391c565b61239e565b6040516102099493929190614180565b6104b76104b236600461391c565b612b21565b60405161020991906141cd565b6101fd6104d23660046141e0565b612d96565b6102656104e5366004613c2e565b612dc4565b60006001600160e01b03198216632483248360e11b148061050f575061050f82612e02565b92915050565b60606000805461052490614213565b80601f016020809104026020016040519081016040528092919081815260200182805461055090614213565b801561059d5780601f106105725761010080835404028352916020019161059d565b820191906000526020600020905b81548152906001019060200180831161058057829003601f168201915b5050505050905090565b60006105b282612e52565b506000828152600460205260409020546001600160a01b031661050f565b6105db828233612e8b565b5050565b6001600160a01b03821661060e57604051633250574960e11b8152600060048201526024015b60405180910390fd5b600061061b838333612e98565b9050836001600160a01b0316816001600160a01b031614610669576040516364283d7b60e01b81526001600160a01b0380861660048301526024820184905282166044820152606401610605565b50505050565b6000828152600e602052604081205460ff1661069d5760405162461bcd60e51b81526004016106059061424d565b6000838152600c602052604090205482106106ef5760405162461bcd60e51b8152602060048201526012602482015271092dcecc2d8d2c840c6cae4e840d2dcc8caf60731b6044820152606401610605565b6000838152600c6020526040812080548490811061070f5761070f614284565b90600052602060002090600702016040518060e001604052908160008201805461073890614213565b80601f016020809104026020016040519081016040528092919081815260200182805461076490614213565b80156107b15780601f10610786576101008083540402835291602001916107b1565b820191906000526020600020905b81548152906001019060200180831161079457829003601f168201915b505050505081526020016001820180546107ca90614213565b80601f01602080910402602001604051908101604052809291908181526020018280546107f690614213565b80156108435780601f1061081857610100808354040283529160200191610843565b820191906000526020600020905b81548152906001019060200180831161082657829003601f168201915b5050505050815260200160028201805461085c90614213565b80601f016020809104026020016040519081016040528092919081815260200182805461088890614213565b80156108d55780601f106108aa576101008083540402835291602001916108d5565b820191906000526020600020905b8154815290600101906020018083116108b857829003601f168201915b505050918352505060038201546020820152600482015460408201526005820154606082015260069091015460ff16151560809091015260c08101519091508015610924575080608001514211155b949350505050565b610934613056565b6000878152600e602052604090205460ff166109625760405162461bcd60e51b81526004016106059061424d565b8282116109a75760405162461bcd60e51b8152602060048201526013602482015272496e76616c696420657870697279206461746560681b6044820152606401610605565b6000878152600c60209081526040808320815160e0810183528a81528084018a9052918201889052606082018790526080820186905260a08201859052600160c0830181905281549081018255908452919092208251600790920201908190610a1090826142e0565b5060208201516001820190610a2590826142e0565b5060408201516002820190610a3a90826142e0565b50606082015160038201556080820151600482015560a0820151600582015560c0909101516006909101805460ff191691151591909117905560405187907fd5cc64234f9a237a4a24f8eff8bbfb2eed7c01ce9c7e3b6857c96c3d881ff3d990610aa9908990899087906143a0565b60405180910390a250505050505050565b610ad5838383604051806020016040528060008152506112ff565b505050565b600061050f82612e52565b6000818152600e602052604090205460609060ff16610b165760405162461bcd60e51b81526004016106059061424d565b6000828152600b6020908152604080832080548251818502810185019093528083529193909284015b82821015610d4857838290600052602060002090600502016040518060a0016040529081600082018054610b7290614213565b80601f0160208091040260200160405190810160405280929190818152602001828054610b9e90614213565b8015610beb5780601f10610bc057610100808354040283529160200191610beb565b820191906000526020600020905b815481529060010190602001808311610bce57829003601f168201915b50505050508152602001600182018054610c0490614213565b80601f0160208091040260200160405190810160405280929190818152602001828054610c3090614213565b8015610c7d5780601f10610c5257610100808354040283529160200191610c7d565b820191906000526020600020905b815481529060010190602001808311610c6057829003601f168201915b50505091835250506002820154602082015260038201546001600160a01b03166040820152600482018054606090920191610cb790614213565b80601f0160208091040260200160405190810160405280929190818152602001828054610ce390614213565b8015610d305780601f10610d0557610100808354040283529160200191610d30565b820191906000526020600020905b815481529060010190602001808311610d1357829003601f168201915b50505050508152505081526020019060010190610b3f565b505050509050919050565b60006001600160a01b038216610d7f576040516322718ad960e21b815260006004820152602401610605565b506001600160a01b031660009081526003602052604090205490565b610da3613056565b610dad6000613083565b565b600b6020528160005260406000208181548110610dcb57600080fd5b906000526020600020906005020160009150915050806000018054610def90614213565b80601f0160208091040260200160405190810160405280929190818152602001828054610e1b90614213565b8015610e685780601f10610e3d57610100808354040283529160200191610e68565b820191906000526020600020905b815481529060010190602001808311610e4b57829003601f168201915b505050505090806001018054610e7d90614213565b80601f0160208091040260200160405190810160405280929190818152602001828054610ea990614213565b8015610ef65780601f10610ecb57610100808354040283529160200191610ef6565b820191906000526020600020905b815481529060010190602001808311610ed957829003601f168201915b5050505060028301546003840154600485018054949592946001600160a01b03909216935090610f2590614213565b80601f0160208091040260200160405190810160405280929190818152602001828054610f5190614213565b8015610f9e5780601f10610f7357610100808354040283529160200191610f9e565b820191906000526020600020905b815481529060010190602001808311610f8157829003601f168201915b5050505050905085565b600c6020528160005260406000208181548110610fc457600080fd5b906000526020600020906007020160009150915050806000018054610fe890614213565b80601f016020809104026020016040519081016040528092919081815260200182805461101490614213565b80156110615780601f1061103657610100808354040283529160200191611061565b820191906000526020600020905b81548152906001019060200180831161104457829003601f168201915b50505050509080600101805461107690614213565b80601f01602080910402602001604051908101604052809291908181526020018280546110a290614213565b80156110ef5780601f106110c4576101008083540402835291602001916110ef565b820191906000526020600020905b8154815290600101906020018083116110d257829003601f168201915b50505050509080600201805461110490614213565b80601f016020809104026020016040519081016040528092919081815260200182805461113090614213565b801561117d5780601f106111525761010080835404028352916020019161117d565b820191906000526020600020905b81548152906001019060200180831161116057829003601f168201915b505050506003830154600484015460058501546006909501549394919390925060ff1687565b6111ab613056565b6000828152600e602052604090205460ff166111d95760405162461bcd60e51b81526004016106059061424d565b6000828152600c6020526040902054811061122b5760405162461bcd60e51b8152602060048201526012602482015271092dcecc2d8d2c840c6cae4e840d2dcc8caf60731b6044820152606401610605565b6000828152600c6020526040812080548390811061124b5761124b614284565b906000526020600020906007020160060160006101000a81548160ff021916908315150217905550817f92f4b6339df1e83d908b368b10192a59917cc2ad4681a6f3e37aad7ee1b14b66600c600085815260200190815260200160002083815481106112b9576112b9614284565b9060005260206000209060070201600001426040516112d99291906143d6565b60405180910390a25050565b60606001805461052490614213565b6105db3383836130d5565b61130a8484846105df565b6106693385858585613174565b61131f613056565b6000848152600e602052604090205460ff1661134d5760405162461bcd60e51b81526004016106059061424d565b6000848152600a602052604090206008015460ff166113a55760405162461bcd60e51b815260206004820152601460248201527350617373706f727420697320696e61637469766560601b6044820152606401610605565b6000848152600b60209081526040808320815160a081018352878152808401879052429281019290925233606083015260808201859052805460018101825590845291909220825160059092020190819061140090826142e0565b506020820151600182019061141590826142e0565b506040820151600282015560608201516003820180546001600160a01b0319166001600160a01b039092169190911790556080820151600482019061145a90826142e0565b505050837f96c8b8f3f88bb51a33fe4414ae25cabd463b95847d1f758bd965b19d07f47e24844260405161148f92919061446a565b60405180910390a250505050565b60606114a882612e52565b50600082815260066020526040812080546114c290614213565b80601f01602080910402602001604051908101604052809291908181526020018280546114ee90614213565b801561153b5780601f106115105761010080835404028352916020019161153b565b820191906000526020600020905b81548152906001019060200180831161151e57829003601f168201915b50505050509050600061155960408051602081019091526000815290565b9050805160000361156b575092915050565b81511561159d57808260405160200161158592919061448c565b60405160208183030381529060405292505050919050565b6109248461329f565b600a602052600090815260409020805481906115c190614213565b80601f01602080910402602001604051908101604052809291908181526020018280546115ed90614213565b801561163a5780601f1061160f5761010080835404028352916020019161163a565b820191906000526020600020905b81548152906001019060200180831161161d57829003601f168201915b505050506001830154600284015460038501805494956001600160a01b03909316949193509061166990614213565b80601f016020809104026020016040519081016040528092919081815260200182805461169590614213565b80156116e25780601f106116b7576101008083540402835291602001916116e2565b820191906000526020600020905b8154815290600101906020018083116116c557829003601f168201915b5050505050908060040180546116f790614213565b80601f016020809104026020016040519081016040528092919081815260200182805461172390614213565b80156117705780601f1061174557610100808354040283529160200191611770565b820191906000526020600020905b81548152906001019060200180831161175357829003601f168201915b50505050509080600501549080600601805461178b90614213565b80601f01602080910402602001604051908101604052809291908181526020018280546117b790614213565b80156118045780601f106117d957610100808354040283529160200191611804565b820191906000526020600020905b8154815290600101906020018083116117e757829003601f168201915b50505050600783015460089093015491929160ff16905089565b6000611828613056565b6001600160a01b0389166118775760405162461bcd60e51b8152602060048201526016602482015275496e76616c6964206661726d6572206164647265737360501b6044820152606401610605565b60008851116118ba5760405162461bcd60e51b815260206004820152600f60248201526e131bdd081251081c995c5d5a5c9959608a1b6044820152606401610605565b600d886040516118ca91906144bb565b9081526020016040518091039020546000146119285760405162461bcd60e51b815260206004820152601860248201527f4c6f7420616c7265616479206861732070617373706f727400000000000000006044820152606401610605565b60098054906000611938836144d7565b909155505060095461194a8a82613314565b611954818461332e565b60408051610120810182528a81526001600160a01b038c16602080830191909152428284015260608201889052608082018b905260a082018a905260c0820189905260e0820187905260016101008301526000848152600a90915291909120815181906119c190826142e0565b5060208201516001820180546001600160a01b0319166001600160a01b039092169190911790556040820151600282015560608201516003820190611a0690826142e0565b5060808201516004820190611a1b90826142e0565b5060a0820151600582015560c08201516006820190611a3a90826142e0565b5060e08201516007820155610100909101516008909101805460ff19169115159190911790556040518190600d90611a73908c906144bb565b908152604080519182900360209081018320939093556000848152600e8452818120805460ff19166001179055600b845281902060e083018252600760a084019081526610dc99585d195960ca1b60c08501528352815160608101909252602380835290938381019291906145599083013981524260208083019190915233604083015260609091018890528254600181018455600093845292208151919260050201908190611b2390826142e0565b5060208201516001820190611b3890826142e0565b506040820151600282015560608201516003820180546001600160a01b0319166001600160a01b0390921691909117905560808201516004820190611b7d90826142e0565b505050896001600160a01b031689604051611b9891906144bb565b6040518091039020827f88323102ae54d540936e392f55e90a9a5bedf0fc02f447c274139d26288607ae86604051611bd09190613909565b60405180910390a49998505050505050505050565b6000611bef61382c565b606080600d85604051611c0291906144bb565b908152602001604051809103902054935083600003611c635760405162461bcd60e51b815260206004820152601860248201527f4e6f2070617373706f727420666f722074686973206c6f7400000000000000006044820152606401610605565b6000848152600a60205260409081902081516101208101909252805482908290611c8c90614213565b80601f0160208091040260200160405190810160405280929190818152602001828054611cb890614213565b8015611d055780601f10611cda57610100808354040283529160200191611d05565b820191906000526020600020905b815481529060010190602001808311611ce857829003601f168201915b505050918352505060018201546001600160a01b0316602082015260028201546040820152600382018054606090920191611d3f90614213565b80601f0160208091040260200160405190810160405280929190818152602001828054611d6b90614213565b8015611db85780601f10611d8d57610100808354040283529160200191611db8565b820191906000526020600020905b815481529060010190602001808311611d9b57829003601f168201915b50505050508152602001600482018054611dd190614213565b80601f0160208091040260200160405190810160405280929190818152602001828054611dfd90614213565b8015611e4a5780601f10611e1f57610100808354040283529160200191611e4a565b820191906000526020600020905b815481529060010190602001808311611e2d57829003601f168201915b5050505050815260200160058201548152602001600682018054611e6d90614213565b80601f0160208091040260200160405190810160405280929190818152602001828054611e9990614213565b8015611ee65780601f10611ebb57610100808354040283529160200191611ee6565b820191906000526020600020905b815481529060010190602001808311611ec957829003601f168201915b5050509183525050600782015460208083019190915260089092015460ff1615156040918201526000878152600b835281812080548351818602810186019094528084529497509193919284015b8282101561213d57838290600052602060002090600502016040518060a0016040529081600082018054611f6790614213565b80601f0160208091040260200160405190810160405280929190818152602001828054611f9390614213565b8015611fe05780601f10611fb557610100808354040283529160200191611fe0565b820191906000526020600020905b815481529060010190602001808311611fc357829003601f168201915b50505050508152602001600182018054611ff990614213565b80601f016020809104026020016040519081016040528092919081815260200182805461202590614213565b80156120725780601f1061204757610100808354040283529160200191612072565b820191906000526020600020905b81548152906001019060200180831161205557829003601f168201915b50505091835250506002820154602082015260038201546001600160a01b031660408201526004820180546060909201916120ac90614213565b80601f01602080910402602001604051908101604052809291908181526020018280546120d890614213565b80156121255780601f106120fa57610100808354040283529160200191612125565b820191906000526020600020905b81548152906001019060200180831161210857829003601f168201915b50505050508152505081526020019060010190611f34565b505050509150600c6000858152602001908152602001600020805480602002602001604051908101604052809291908181526020016000905b8282101561239157838290600052602060002090600702016040518060e00160405290816000820180546121a990614213565b80601f01602080910402602001604051908101604052809291908181526020018280546121d590614213565b80156122225780601f106121f757610100808354040283529160200191612222565b820191906000526020600020905b81548152906001019060200180831161220557829003601f168201915b5050505050815260200160018201805461223b90614213565b80601f016020809104026020016040519081016040528092919081815260200182805461226790614213565b80156122b45780601f10612289576101008083540402835291602001916122b4565b820191906000526020600020905b81548152906001019060200180831161229757829003601f168201915b505050505081526020016002820180546122cd90614213565b80601f01602080910402602001604051908101604052809291908181526020018280546122f990614213565b80156123465780601f1061231b57610100808354040283529160200191612346565b820191906000526020600020905b81548152906001019060200180831161232957829003601f168201915b50505091835250506003820154602080830191909152600483015460408301526005830154606083015260069092015460ff1615156080909101529082526001929092019101612176565b5050505090509193509193565b6123a661382c565b6000828152600e60205260409020546060908190819060ff166123db5760405162461bcd60e51b81526004016106059061424d565b6000858152600a6020526040908190208151610120810190925280548290829061240490614213565b80601f016020809104026020016040519081016040528092919081815260200182805461243090614213565b801561247d5780601f106124525761010080835404028352916020019161247d565b820191906000526020600020905b81548152906001019060200180831161246057829003601f168201915b505050918352505060018201546001600160a01b03166020820152600282015460408201526003820180546060909201916124b790614213565b80601f01602080910402602001604051908101604052809291908181526020018280546124e390614213565b80156125305780601f1061250557610100808354040283529160200191612530565b820191906000526020600020905b81548152906001019060200180831161251357829003601f168201915b5050505050815260200160048201805461254990614213565b80601f016020809104026020016040519081016040528092919081815260200182805461257590614213565b80156125c25780601f10612597576101008083540402835291602001916125c2565b820191906000526020600020905b8154815290600101906020018083116125a557829003601f168201915b50505050508152602001600582015481526020016006820180546125e590614213565b80601f016020809104026020016040519081016040528092919081815260200182805461261190614213565b801561265e5780601f106126335761010080835404028352916020019161265e565b820191906000526020600020905b81548152906001019060200180831161264157829003601f168201915b5050509183525050600782015460208083019190915260089092015460ff1615156040918201526000888152600b835281812080548351818602810186019094528084529498509193919284015b828210156128b557838290600052602060002090600502016040518060a00160405290816000820180546126df90614213565b80601f016020809104026020016040519081016040528092919081815260200182805461270b90614213565b80156127585780601f1061272d57610100808354040283529160200191612758565b820191906000526020600020905b81548152906001019060200180831161273b57829003601f168201915b5050505050815260200160018201805461277190614213565b80601f016020809104026020016040519081016040528092919081815260200182805461279d90614213565b80156127ea5780601f106127bf576101008083540402835291602001916127ea565b820191906000526020600020905b8154815290600101906020018083116127cd57829003601f168201915b50505091835250506002820154602082015260038201546001600160a01b0316604082015260048201805460609092019161282490614213565b80601f016020809104026020016040519081016040528092919081815260200182805461285090614213565b801561289d5780601f106128725761010080835404028352916020019161289d565b820191906000526020600020905b81548152906001019060200180831161288057829003601f168201915b505050505081525050815260200190600101906126ac565b505050509250600c6000868152602001908152602001600020805480602002602001604051908101604052809291908181526020016000905b82821015612b0957838290600052602060002090600702016040518060e001604052908160008201805461292190614213565b80601f016020809104026020016040519081016040528092919081815260200182805461294d90614213565b801561299a5780601f1061296f5761010080835404028352916020019161299a565b820191906000526020600020905b81548152906001019060200180831161297d57829003601f168201915b505050505081526020016001820180546129b390614213565b80601f01602080910402602001604051908101604052809291908181526020018280546129df90614213565b8015612a2c5780601f10612a0157610100808354040283529160200191612a2c565b820191906000526020600020905b815481529060010190602001808311612a0f57829003601f168201915b50505050508152602001600282018054612a4590614213565b80601f0160208091040260200160405190810160405280929190818152602001828054612a7190614213565b8015612abe5780601f10612a9357610100808354040283529160200191612abe565b820191906000526020600020905b815481529060010190602001808311612aa157829003601f168201915b50505091835250506003820154602080830191909152600483015460408301526005830154606083015260069092015460ff16151560809091015290825260019290920191016128ee565b505050509150612b188561149d565b90509193509193565b6000818152600e602052604090205460609060ff16612b525760405162461bcd60e51b81526004016106059061424d565b6000828152600c6020908152604080832080548251818502810185019093528083529193909284015b82821015610d4857838290600052602060002090600702016040518060e0016040529081600082018054612bae90614213565b80601f0160208091040260200160405190810160405280929190818152602001828054612bda90614213565b8015612c275780601f10612bfc57610100808354040283529160200191612c27565b820191906000526020600020905b815481529060010190602001808311612c0a57829003601f168201915b50505050508152602001600182018054612c4090614213565b80601f0160208091040260200160405190810160405280929190818152602001828054612c6c90614213565b8015612cb95780601f10612c8e57610100808354040283529160200191612cb9565b820191906000526020600020905b815481529060010190602001808311612c9c57829003601f168201915b50505050508152602001600282018054612cd290614213565b80601f0160208091040260200160405190810160405280929190818152602001828054612cfe90614213565b8015612d4b5780601f10612d2057610100808354040283529160200191612d4b565b820191906000526020600020905b815481529060010190602001808311612d2e57829003601f168201915b50505091835250506003820154602080830191909152600483015460408301526005830154606083015260069092015460ff1615156080909101529082526001929092019101612b7b565b6001600160a01b03918216600090815260056020908152604080832093909416825291909152205460ff1690565b612dcc613056565b6001600160a01b038116612df657604051631e4fbdf760e01b815260006004820152602401610605565b612dff81613083565b50565b60006001600160e01b031982166380ac58cd60e01b1480612e3357506001600160e01b03198216635b5e139f60e01b145b8061050f57506301ffc9a760e01b6001600160e01b031983161461050f565b6000818152600260205260408120546001600160a01b03168061050f57604051637e27328960e01b815260048101849052602401610605565b610ad5838383600161337e565b6000828152600260205260408120546001600160a01b03168015801590612ec757506001600160a01b03851615155b8015612ee55750846001600160a01b0316816001600160a01b031614155b1561304257846001600160a01b0316816001600160a01b0316857f14f16993e3fca4faae3092c8b46286fcb423d6ea7c6dc4484652cc59e403722142604051612f3091815260200190565b60405180910390a46000848152600b60208181526040808420815160e08101835260a081019485526a151c985b9cd9995c9c995960aa1b60c082015293845281518083018352601581527413dddb995c9cda1a5c081d1c985b9cd9995c9c9959605a1b818501528484015242848301526001600160a01b038816606085015281518084019092528482526080840191909152805460018101825590845292208151919260050201908190612fe490826142e0565b5060208201516001820190612ff990826142e0565b506040820151600282015560608201516003820180546001600160a01b0319166001600160a01b039092169190911790556080820151600482019061303e90826142e0565b5050505b61304d858585613484565b95945050505050565b6007546001600160a01b03163314610dad5760405163118cdaa760e01b8152336004820152602401610605565b600780546001600160a01b038381166001600160a01b0319831681179093556040519116919082907f8be0079c531659141344cd1fd0a4f28419497f9722a3daafe3b4186f6b6457e090600090a35050565b6001600160a01b03821661310757604051630b61174360e31b81526001600160a01b0383166004820152602401610605565b6001600160a01b03838116600081815260056020908152604080832094871680845294825291829020805460ff191686151590811790915591519182527f17307eab39ab6107e8899845ad3d59bd9653f200f220920489ca2b5937696c31910160405180910390a3505050565b6001600160a01b0383163b1561329857604051630a85bd0160e11b81526001600160a01b0384169063150b7a02906131b69088908890879087906004016144fe565b6020604051808303816000875af19250505080156131f1575060408051601f3d908101601f191682019092526131ee9181019061453b565b60015b61325a573d80801561321f576040519150601f19603f3d011682016040523d82523d6000602084013e613224565b606091505b50805160000361325257604051633250574960e11b81526001600160a01b0385166004820152602401610605565b805160208201fd5b6001600160e01b03198116630a85bd0160e11b1461329657604051633250574960e11b81526001600160a01b0385166004820152602401610605565b505b5050505050565b60606132aa82612e52565b5060006132c260408051602081019091526000815290565b905060008151116132e2576040518060200160405280600081525061330d565b806132ec8461357d565b6040516020016132fd92919061448c565b6040516020818303038152906040525b9392505050565b6105db828260405180602001604052806000815250613610565b600082815260066020526040902061334682826142e0565b506040518281527ff8e1a15aba9398e019f0b49df1a4fde98ee17ae345cb5f6b5e2c27f5033e8ce79060200160405180910390a15050565b808061339257506001600160a01b03821615155b156134545760006133a284612e52565b90506001600160a01b038316158015906133ce5750826001600160a01b0316816001600160a01b031614155b80156133e157506133df8184612d96565b155b1561340a5760405163a9fbf51f60e01b81526001600160a01b0384166004820152602401610605565b81156134525783856001600160a01b0316826001600160a01b03167f8c5be1e5ebec7d5bd14f71427d1e84f3dd0314c0f7b2291e5b200ac8c7c3b92560405160405180910390a45b505b5050600090815260046020526040902080546001600160a01b0319166001600160a01b0392909216919091179055565b6000828152600260205260408120546001600160a01b03908116908316156134b1576134b1818486613628565b6001600160a01b038116156134ef576134ce60008560008061337e565b6001600160a01b038116600090815260036020526040902080546000190190555b6001600160a01b0385161561351e576001600160a01b0385166000908152600360205260409020805460010190555b60008481526002602052604080822080546001600160a01b0319166001600160a01b0389811691821790925591518793918516917fddf252ad1be2c89b69c2b068fc378daa952ba7f163c4a11628f55a4df523b3ef91a4949350505050565b6060600061358a8361368c565b600101905060008167ffffffffffffffff8111156135aa576135aa6139d9565b6040519080825280601f01601f1916602001820160405280156135d4576020820181803683370190505b5090508181016020015b600019016f181899199a1a9b1b9c1cb0b131b232b360811b600a86061a8153600a85049450846135de57509392505050565b61361a8383613764565b610ad5336000858585613174565b6136338383836137c9565b610ad5576001600160a01b03831661366157604051637e27328960e01b815260048101829052602401610605565b60405163177e802f60e01b81526001600160a01b038316600482015260248101829052604401610605565b60008072184f03e93ff9f4daa797ed6e38ed64bf6a1f0160401b83106136cb5772184f03e93ff9f4daa797ed6e38ed64bf6a1f0160401b830492506040015b6d04ee2d6d415b85acef810000000083106136f7576d04ee2d6d415b85acef8100000000830492506020015b662386f26fc10000831061371557662386f26fc10000830492506010015b6305f5e100831061372d576305f5e100830492506008015b612710831061374157612710830492506004015b60648310613753576064830492506002015b600a831061050f5760010192915050565b6001600160a01b03821661378e57604051633250574960e11b815260006004820152602401610605565b600061379c83836000612e98565b90506001600160a01b03811615610ad5576040516339e3563760e11b815260006004820152602401610605565b60006001600160a01b038316158015906109245750826001600160a01b0316846001600160a01b0316148061380357506138038484612d96565b806109245750506000908152600460205260409020546001600160a01b03908116911614919050565b6040518061012001604052806060815260200160006001600160a01b031681526020016000815260200160608152602001606081526020016000815260200160608152602001600080191681526020016000151581525090565b6001600160e01b031981168114612dff57600080fd5b6000602082840312156138ae57600080fd5b813561330d81613886565b60005b838110156138d45781810151838201526020016138bc565b50506000910152565b600081518084526138f58160208601602086016138b9565b601f01601f19169290920160200192915050565b60208152600061330d60208301846138dd565b60006020828403121561392e57600080fd5b5035919050565b80356001600160a01b038116811461394c57600080fd5b919050565b6000806040838503121561396457600080fd5b61396d83613935565b946020939093013593505050565b60008060006060848603121561399057600080fd5b61399984613935565b92506139a760208501613935565b9150604084013590509250925092565b600080604083850312156139ca57600080fd5b50508035926020909101359150565b634e487b7160e01b600052604160045260246000fd5b600067ffffffffffffffff80841115613a0a57613a0a6139d9565b604051601f8501601f19908116603f01168101908282118183101715613a3257613a326139d9565b81604052809350858152868686011115613a4b57600080fd5b858560208301376000602087830101525050509392505050565b600082601f830112613a7657600080fd5b61330d838335602085016139ef565b600080600080600080600060e0888a031215613aa057600080fd5b87359650602088013567ffffffffffffffff80821115613abf57600080fd5b613acb8b838c01613a65565b975060408a0135915080821115613ae157600080fd5b613aed8b838c01613a65565b965060608a0135915080821115613b0357600080fd5b50613b108a828b01613a65565b979a969950949760808101359660a0820135965060c090910135945092505050565b600060208284031215613b4457600080fd5b813567ffffffffffffffff811115613b5b57600080fd5b61092484828501613a65565b600081518084526020808501808196508360051b8101915082860160005b85811015613c0e578284038952815160a08151818752613ba7828801826138dd565b9150508682015186820388880152613bbf82826138dd565b604084810151908901526060808501516001600160a01b031690890152608093840151888203948901949094529150613bfa905081836138dd565b9a87019a9550505090840190600101613b85565b5091979650505050505050565b60208152600061330d6020830184613b67565b600060208284031215613c4057600080fd5b61330d82613935565b60a081526000613c5c60a08301886138dd565b8281036020840152613c6e81886138dd565b604084018790526001600160a01b038616606085015283810360808501529050613c9881856138dd565b98975050505050505050565b60e081526000613cb760e083018a6138dd565b8281036020840152613cc9818a6138dd565b90508281036040840152613cdd81896138dd565b9150508560608301528460808301528360a083015282151560c083015298975050505050505050565b60008060408385031215613d1957600080fd5b613d2283613935565b915060208301358015158114613d3757600080fd5b809150509250929050565b60008060008060808587031215613d5857600080fd5b613d6185613935565b9350613d6f60208601613935565b925060408501359150606085013567ffffffffffffffff811115613d9257600080fd5b8501601f81018713613da357600080fd5b613db2878235602084016139ef565b91505092959194509250565b60008060008060808587031215613dd457600080fd5b84359350602085013567ffffffffffffffff80821115613df357600080fd5b613dff88838901613a65565b94506040870135915080821115613e1557600080fd5b613e2188838901613a65565b93506060870135915080821115613e3757600080fd5b50613db287828801613a65565b6000610120808352613e588184018d6138dd565b6001600160a01b038c166020850152604084018b905283810360608501529050613e82818a6138dd565b90508281036080840152613e9681896138dd565b90508660a084015282810360c0840152613eb081876138dd565b60e0840195909552505090151561010090910152979650505050505050565b600080600080600080600080610100898b031215613eec57600080fd5b613ef589613935565b9750602089013567ffffffffffffffff80821115613f1257600080fd5b613f1e8c838d01613a65565b985060408b0135915080821115613f3457600080fd5b613f408c838d01613a65565b975060608b0135965060808b0135915080821115613f5d57600080fd5b613f698c838d01613a65565b955060a08b0135915080821115613f7f57600080fd5b613f8b8c838d01613a65565b945060c08b0135935060e08b0135915080821115613fa857600080fd5b50613fb58b828c01613a65565b9150509295985092959890939650565b60006101208251818552613fdb828601826138dd565b9150506020830151613ff860208601826001600160a01b03169052565b50604083015160408501526060830151848203606086015261401a82826138dd565b9150506080830151848203608086015261403482826138dd565b91505060a083015160a085015260c083015184820360c086015261405882826138dd565b91505060e083015160e0850152610100808401516140798287018215159052565b5090949350505050565b600081518084526020808501808196508360051b8101915082860160005b85811015613c0e578284038952815160e081518187526140c3828801826138dd565b91505086820151868203888801526140db82826138dd565b915050604080830151878303828901526140f583826138dd565b606085810151908a0152608080860151908a015260a080860151908a015260c0948501511515949098019390935250505097840197908401906001016140a1565b84815260806020820152600061414f6080830186613fc5565b82810360408401526141618186613b67565b905082810360608401526141758185614083565b979650505050505050565b6080815260006141936080830187613fc5565b82810360208401526141a58187613b67565b905082810360408401526141b98186614083565b9050828103606084015261417581856138dd565b60208152600061330d6020830184614083565b600080604083850312156141f357600080fd5b6141fc83613935565b915061420a60208401613935565b90509250929050565b600181811c9082168061422757607f821691505b60208210810361424757634e487b7160e01b600052602260045260246000fd5b50919050565b60208082526017908201527f50617373706f727420646f6573206e6f74206578697374000000000000000000604082015260600190565b634e487b7160e01b600052603260045260246000fd5b601f821115610ad557600081815260208120601f850160051c810160208610156142c15750805b601f850160051c820191505b81811015613296578281556001016142cd565b815167ffffffffffffffff8111156142fa576142fa6139d9565b61430e816143088454614213565b8461429a565b602080601f831160018114614343576000841561432b5750858301515b600019600386901b1c1916600185901b178555613296565b600085815260208120601f198616915b8281101561437257888601518255948401946001909101908401614353565b50858210156143905787850151600019600388901b60f8161c191681555b5050505050600190811b01905550565b6060815260006143b360608301866138dd565b82810360208401526143c581866138dd565b915050826040830152949350505050565b6040815260008084546143e881614213565b806040860152606060018084166000811461440a576001811461442457614455565b60ff1985168884015283151560051b880183019550614455565b8960005260208060002060005b8681101561444c5781548b8201870152908401908201614431565b8a018501975050505b50505050506020929092019290925292915050565b60408152600061447d60408301856138dd565b90508260208301529392505050565b6000835161449e8184602088016138b9565b8351908301906144b28183602088016138b9565b01949350505050565b600082516144cd8184602087016138b9565b9190910192915050565b6000600182016144f757634e487b7160e01b600052601160045260246000fd5b5060010190565b6001600160a01b0385811682528416602082015260408101839052608060608201819052600090614531908301846138dd565b9695505050505050565b60006020828403121561454d57600080fd5b815161330d8161388656fe506570706572206c6f742072656769737465726564206f6e20626c6f636b636861696ea2646970667358221220664900ea213a2ebffb2ac2b1af98d8fe2b1f39e56b6ce465586e1d7764805ed464736f6c63430008140033",
  "linkReferences": {},
  "deployedLinkReferences": {}
}